:02000002B0004C
:1040000000400B000E500B00000006000C000502E3
:084010000401B41400000000DB
:044018005C4D0B00F0
:10401C00034613F8012B002AFBD1181A01387047FC
:10402C0009480A49884208B505D0094A824202D09B
:10403C00121A00F0E3FD0748074A0021121A00F09B
:10404C00EBFD014808BD00BF64E60320744F0B0074
:10405C00D0E60320D0E60320F0E7032070B5074E2E
:10406C00074C00F051FDA41BA4080025AC4200D164
:10407C0070BD56F8043B98470135F7E72C4F0B0001
:10408C00504F0B0000F013B808B500F01FF8BDE856
:10409C00084000F0F1BC00F097B900F09DB9007831
:1040AC00B0FA80F04009704701230370704708B5DF
:1040BC0000F05CFC4FF4165100F04CFC00F072FD6B
:1040CC00BDE808404FF4165100F0EEBB07B500F008
:1040DC004DFC03681B69984780B100F047FC0368EE
:1040EC005B699847C1B2019100F040FC019900F066
:1040FC003AFB00F057FD019900F026FB00F052FD51
:10410C0003681B69984798B100F04CFD03685B6924
:10411C009847C1B2019100F029FC019900F023FBF2
:10412C0000F024FC019903B05DF804EB00F00CBB2B
:10413C0003B05DF804FB000010B5074B074A9A600A
:10414C000024C3E90044032000F0B2F8214601200A
:10415C00BDE8104000F0B4B8D0E603200000FFFF2B
:10416C0008B5024B1B685B6C019308BD4802030049
:10417C0008B5024B1B685B68019308BD180203006D
:10418C0008B5024B1B685B69019308BD180203005C
:10419C0008B5024B1B685B69019308BD6402030000
:1041AC0008B5024B1B689B68019308BD68020300AD
:1041BC0008B5024B1B68DB68019308BD680203005D
:1041CC0008B5024B1B68DB68019308BD3C02030079
:1041DC0008B5024B1B681B69019308BD3C02030028
:1041EC0008B5024B1B685B69019308BD3C020300D8
:1041FC0008B5024B1B689B69019308BD3C02030088
:10420C0008B5024B1B68DB69019308BD3C02030037
:10421C0008B5024B1B689B6A019308BD3C02030066
:10422C0008B5024B1B68DB6A019308BD3C02030016
:10423C0008B5024B1B681B6C019308BD3C020300C4
:10424C0008B5024B1B681B68019308BD4C020300A8
:10425C0008B5024B1B685B68019308BD4C02030058
:10426C0008B5024B1B681B69019308BD4C02030087
:10427C0008B5024B1B685B69019308BD4C02030037
:10428C0008B5024B1B689B69019308BD4C020300E7
:10429C0008B5024B1B68DB69019308BD4C02030097
:1042AC0008B5024B1B681B6A019308BD4C02030046
:1042BC0008B5024B1B685B68019308BD2002030024
:1042CC0008B5024B1B68DB6A019308BD2002030092
:1042DC0008B5034B1B68D3F88830019308BD000068
:1042EC002002030008B5034B1B68D3F894300193EC
:1042FC0008BD00002002030008B5024B1B68DB6BF5
:10430C00019308BD4402030008B5024B1B685B68AF
:10431C00019308BD4002030008B5024B1B689B6863
:10432C00019308BD4002030008B5024B1B68DB6813
:10433C00019308BD4002030008B5024B1B681B69C2
:10434C00019308BD4002030008B5024B1B685B6972
:10435C00019308BD4002030008B5024B1B689B6922
:10436C00019308BD4002030008B5024B1B68DB69D2
:10437C00019308BD4002030008B5024B1B681B6A81
:10438C00019308BD4002030008B5024B1B681B6B70
:10439C00019308BD4002030008B5024B1B685B6B20
:1043AC00019308BD4002030008B5024B1B681B6C4F
:1043BC00019308BD4002030008B5024B1B685B6CFF
:1043CC00019308BD4002030008B5024B1B681B6833
:1043DC00019308BD1C02030008B5024B1B685B6807
:1043EC00019308BD1C02030008B5024B1B681B6C33
:1043FC00019308BD1C02030008B5024B1B685B6CE3
:10440C00019308BD1C020300024800230360FFF760
:10441C00A7BE00BFDCE60320002240681146FFF770
:10442C00ABBF002240681146FFF7B6BF40680022C0
:10443C00FFF7AABF4068002281F00101FFF794BF8B
:10444C00002340681A461946FFF786BF00234068D0
:10445C001A461946FFF778BF002240681146FFF74D
:10446C006BBF002240681146FFF756BF4068002220
:10447C000221FFF759BF002340681A46FFF744BFDB
:10448C00024B03225A60024A1A607047E0E603208E
:10449C00784D0B00704710B518210446FFF7FDFD51
:1044AC00204610BDF0B5037D062B8DB00E4600F1F5
:1044BC0004074FF0000412D000F1080515F8011D97
:1044CC000A22304600F059F9AF42044419D0002CAE
:1044DC00F4D02E21304600F037F90444EEE72F23B8
:1044EC006A4639460A208DF80040FFF751FE6846AF
:1044FC00FFF78EFD33680246DB6869463046984705
:10450C00044620460DB0F0BD10B5054B04461122F3
:10451C0040F8043B002100F07FFB204610BD00BF9B
:10452C00B44D0B000346074A10B543F8042B01F1B8
:10453C00100251F8044B43F8044B9142F9D10A781C
:10454C001A7010BDB44D0B0010B59DF8084044EA2C
:10455C00032343EA024242EA0161042341600375EA
:10456C0010BD000007B5064B0360CB7800938B7829
:10457C004A780978FFF7E8FF03B05DF804FB00BF49
:10458C00B44D0B00014B024A1A607047E8E6032059
:10459C00C04D0B00002340681A46FFF7B5BE4068BB
:1045AC0000220221FFF7C0BE002240681146FFF72F
:1045BC00B3BE002240681146FFF7BEBE0023406820
:1045CC001A461946FFF7C0BE002340681A46194622
:1045DC00FFF7C2BE40680021FFF7E6BE406800212D
:1045EC00FFF7EABE4068002281F00101FFF7BCBE74
:1045FC0040680022FFF7C8BE002240681146FFF752
:10460C00CBBE002240681146FFF7B6BE2DE9F04341
:10461C0095B014460D460746FFF776FF00211C2285
:10462C000DA8009100F0F8FA40230C9320466B463D
:10463C000CAA0021FFF7BCFD044600284BD1024612
:10464C0001216868FFF778FE0221804622466868DF
:10465C00FFF772FE009E81462146002E3BD00029BA
:10466C0039D17368022B03D00A2B11D0F669F4E709
:10467C00B8F1000FFAD0716906A8043107ADFFF745
:10468C0071FF0FCD3C1D0FC42B6823704146EDE725
:10469C00B9F1000FEAD07469102201A800F0BCFA3D
:1046AC0006238DF8143001AD04F108031834186892
:1046BC0059682A4603C20833A3421546F7D101A90B
:1046CC0006A807ADFFF72EFF0FCD3C1D0FC42B68BE
:1046DC0023704946CAE70098FFF762FD384615B0CB
:1046EC00BDE8F083024B034A1A6000225A607047FF
:1046FC00ECE60320CC4D0B00F8B506460D468F18A2
:10470C000024BD420CD0336815F8011B9B68304661
:10471C009847031E01DB1C44F3E7002C08BF1C4622
:10472C002046F8BD13B50446084659B10191FFF770
:10473C006FFC23680199DB680246204602B0BDE895
:10474C001040184702B010BD03689B68184738B575
:10475C000D210546FFF7F8FF0A2104462846FFF70E
:10476C00F3FF204438BD38B50546FFF7EDFF04468E
:10477C002846FFF7ECFF204438BD30B58BB0002342
:10478C00012A8DF8243098BF0A2209AC0D46B1FBE2
:10479C00F2F101FB125303F0FF03092B94BF3033EA
:1047AC003733DBB2AA4204F8013DEFD92146FFF7BB
:1047BC00B9FF0BB030BD0000014B00229A6070476E
:1047CC00F4E60320054B02221A60054B054A9A6059
:1047DC000020C3E90000FFF76BBD00BF10E703200A
:1047EC0004E703200000FFFF024B1A68024B1A601B
:1047FC00704700BF64E6032014E703207047417440
:10480C00704708B5007CFFF703FD20EAE07008BD97
:10481C0008B5007CFFF7DCFC20EAE07008BD08B5A9
:10482C00007CFFF7E5FC40EAE07008BD08B5007CB1
:10483C00FFF7D6FC40EAE07008BD007CFFF7E0BC57
:10484C0037B5457C04462DB1207C03B0BDE8304023
:10485C00FFF7B6BC007C0191FFF7DAFC0028019948
:10486C00F2DC284603B030BD10B514210446FFF726
:10487C0014FC204610BD000010B54FF47A730446AA
:10488C00084611460022C4E90123044B236001238E
:10489C0020746374FFF7CCFC204610BD244E0B0033
:1048AC00007C0023FFF7BCBC0022FFF7F9BF41746A
:1048BC0070477047704708B50021007CFFF7E0FC9B
:1048CC0040EAE07008BD08B50121007CFFF7D8FC78
:1048DC0040EAE07008BD08B5007CFFF7C9FC20EA8F
:1048EC00E07008BD08B5007CFFF7BAFC20EAE07068
:1048FC0008BD13B50446007C0191FFF7B9FC0028F4
:10490C00019901DC607C20B1207CFFF7C1FC20EA1E
:10491C00E07002B010BD007CFFF7C2BC10B51421D2
:10492C000446FFF7BAFB204610BD000010B54FF44B
:10493C007A73044608460021C4E90113044B236032
:10494C000123207463741146FFF77AFC204610BDD6
:10495C00544E0B00007C0022FFF77ABC10B51422D9
:10496C000446002100F058F9204610BD10B50F4C3C
:10497C0088B003A8FFF7F2FF2178BFF35B8F11F02B
:10498C0001010FD120460191FFF789FB019948B134
:10499C0003AA0748FFF7CAFF2046FFF785FB054827
:1049AC0000F026F9024808B010BD00BF18E703203C
:1049BC001CE70320BF480B00002240681146FFF79C
:1049CC00BBBC002240681146FFF7D6BC00224068F1
:1049DC001146FFF7E1BC40680022FFF7D5BC4068E8
:1049EC00002281F00101FFF7BFBC002340681A468A
:1049FC001946FFF7B1BC002340681A461946FFF769
:104A0C00A3BC002240681146FFF786BC4068002218
:104A1C000221FFF789BC002340681A46FFF774BCDB
:104A2C00024B04225A60024A1A60704730E7032096
:104A3C00844E0B00014B1860704700BF68E60320E2
:104A4C0008B50B4B43B1FFF791FF03681B699847FF
:104A5C00002801DDAFF30080064B43B100F0A2F853
:104A6C0003681B699847002801DDAFF3008008BD7F
:104A7C00000000000000000008B5FFF7E1FFFFF7A1
:104A8C007FFB014B186008BD40E703200548064A30
:104A9C00064908B5121A00F0B1F8054B054A1A6020
:104AAC0008BD00BF00F4032004F40320E04F0B000A
:104ABC0000F403201E1C279A07B5002300931A4606
:104ACC006FF07701FFF70EFC03B05DF804FB0000FC
:104ADC0007B543880A2B08D0502B0BD1094B1B6808
:104AEC004BB103B05DF804EB1847FFF7E5FF03B0DB
:104AFC005DF804FB002300931A466FF07701FFF773
:104B0C00F1FBF4E73CE7032010B512480021FFF756
:104B1C0073FC114B1A68114B9A42114B0CBF0122BA
:104B2C0000221A7001D0FFF7B1FFFFF721FB0446FA
:104B3C0000F07AF80B4B13B12046AFF30080002144
:104B4C000848FFF7D9FBBDE8104007480021FFF7E4
:104B5C00BFBB00BF414A0B0000F403201E1C279A68
:104B6C0038E7032000000000DD4A0B00704700000E
:104B7C0038B5044614252A46002100F04DF825804E
:104B8C004025074925812846258200F02FF8044945
:104B9C006060284600F02AF8E060204638BD00BF6F
:104BAC00B84E0B0030B50E4D2978BFF35B8F11F06A
:104BBC00010487B011D12846FFF771FA68B101A83A
:104BCC00FFF7D6FF01AA21460648FFF755FE2846F7
:104BDC00FFF76AFA044800F00BF8024807B030BD42
:104BEC0044E7032048E70320794B0B00FFF753BA47
:104BFC00002301461A46184600F044B80A44914274
:104C0C0000F1FF3300D1704710B511F8014B03F8D8
:104C1C00014F9142F9D110BD02440346934200D199
:104C2C00704703F8011BF9E738B5104B1D68AB6BE7
:104C3C000446B3B91820FFF7C7FB0246A86320B996
:104C4C000B4B0C484221FFF7CFFB0B490B4BC0E938
:104C5C0000130B4B83600B23838100210120C2E9DD
:104C6C000401AB6B00221C615A6138BD68E603205D
:104C7C00B94E0B00D04E0B000E33CDAB34126DE69B
:104C8C00ECDE05002DE9F843DFF8B8800646D8F8CD
:104C9C0000001F460D46914600F056F8254B1C6847
:104CAC0034B9254C1C60254B13B11B68C4F88830F3
:104CBC0063681F2B07DDD8F8000000F047F84FF0B1
:104CCC00FF30BDE8F8834EB3D4F8880088B91C4B8C
:104CDC0023B9D8F8000000F038F8F0E74FF48470EE
:104CEC00FFF772FB0028F4D00023C0E94033C4F86E
:104CFC008800636840F8239001229A4000EB8301FE
:104D0C00D0F800311343C0F80031022EC1F8807086
:104D1C0002BFD0F804311343C0F804316368D8F8EB
:104D2C0000005A1C0233626044F8235000F00EF865
:104D3C000020C6E7E8E703205CE703200000000042
:104D4C00D5430B00CCE6032070477047704700003A
:104D5C002D400B0069400B0091400B0095400B005F
:104D6C0000000000000000000000000083440B0065
:104D7C0079440B006F440B0065440B0059440B0045
:104D8C004D440B00E1450B00E9450B0041440B0081
:104D9C0039440B002F440B0025440B0019460B0023
:104DAC000000000000000000B1440B00A1440B0007
:104DBC00A3440B00617070000000000000000000B4
:104DCC00A1450B00AB450B00B5450B00BF450B00D7
:104DDC00C9450B00D5450B00E1450B00E9450B001F
:104DEC00F1450B00FD450B0005460B000F460B0073
:104DFC0019460B0025592D256D2D25645425483A4F
:104E0C00254D3A2553257A0061736374696D6500ED
:104E1C00000000000000000009480B0075480B0062
:104E2C004D480B0005470B001D480B0039480B0083
:104E3C002B480B0047480B000B480B000F480B008E
:104E4C000000000000000000C1480B0029490B00C5
:104E5C00FF480B0005470B00F1480B00C3480B0043
:104E6C00D3480B0023490B00E3480B00BB480B0055
:104E7C000000000000000000234A0B00194A0B0040
:104E8C000F4A0B00C5490B00034A0B00F7490B00F6
:104E9C00E1450B00E9450B00EB490B00E3490B0026
:104EAC00D9490B00CF490B0019460B000052454560
:104EBC004E54206D616C6C6F632073756363656514
:104ECC00646564002F746D702F6A656E6B696E7308
:104EDC002D4743432D31302D706970656C696E65BB
:104EEC002D34385F32303230313132345F3136303C
:104EFC00363138303633392F7372632F6E65776CD9
:104F0C0069622F6E65776C69622F6C6962632F73AF
:104F1C0074646C69622F72616E642E630000000011
:104F2C0045410B0015440B008D440B0091450B00C3
:104F3C00F1460B00C5470B00D1470B00F5470B00A2
:044F4C002D4A0B00DF
:104F5000040000001400000003000000474E55004C
:104F600078F3691E01A1356547B3E775754DC054E7
:044F70008E9EA096DB
:104F7400144E0B006CE6032000000000000000004B
:104F8400000000000000000000000000000000001D
:104F9400000000000000000000000000000000000D
:104FA40000000000000000000000000000000000FD
:104FB40000000000000000000000000000000000ED
:104FC40000000000000000000000000000000000DD
:0C4FD4000000000000000000ECE70320DB
:044FE00000000000CD
:104FEA0000000102030405060708090A0B0C0D0E4E
:104FFA000F101112131415161718191A1B1C1D1E3F
:04500A001F2028003B
:04500E00785634128A
:04000003B000401CED
:00000001FF
